{
  "contractName": "optimized_healthCare",
  "abi": [
    {
      "inputs": [],
      "payable": false,
      "stateMutability": "nonpayable",
      "type": "constructor",
      "signature": "constructor"
    },
    {
      "constant": false,
      "inputs": [
        {
          "name": "_name",
          "type": "string"
        },
        {
          "name": "_age",
          "type": "uint8"
        }
      ],
      "name": "signupPatient",
      "outputs": [],
      "payable": false,
      "stateMutability": "nonpayable",
      "type": "function",
      "signature": "0x7120203a"
    },
    {
      "constant": false,
      "inputs": [
        {
          "name": "_name",
          "type": "string"
        }
      ],
      "name": "signupDoctor",
      "outputs": [],
      "payable": false,
      "stateMutability": "nonpayable",
      "type": "function",
      "signature": "0x6459d52f"
    },
    {
      "constant": false,
      "inputs": [
        {
          "name": "doctor_id",
          "type": "address"
        }
      ],
      "name": "grantAccessToDoctor",
      "outputs": [],
      "payable": false,
      "stateMutability": "nonpayable",
      "type": "function",
      "signature": "0x1c8e251c"
    },
    {
      "constant": false,
      "inputs": [
        {
          "name": "_file_name",
          "type": "string"
        },
        {
          "name": "_file_type",
          "type": "string"
        },
        {
          "name": "_fileHash",
          "type": "bytes32"
        },
        {
          "name": "_file_secret",
          "type": "string"
        }
      ],
      "name": "addFile",
      "outputs": [],
      "payable": false,
      "stateMutability": "nonpayable",
      "type": "function",
      "signature": "0x9f6a7a11"
    },
    {
      "constant": false,
      "inputs": [
        {
          "name": "_file_name",
          "type": "string"
        },
        {
          "name": "_file_type",
          "type": "string"
        },
        {
          "name": "_file_hash",
          "type": "string"
        }
      ],
      "name": "addUserFiles",
      "outputs": [],
      "payable": false,
      "stateMutability": "nonpayable",
      "type": "function",
      "signature": "0x2ae48e40"
    },
    {
      "constant": true,
      "inputs": [
        {
          "name": "sender",
          "type": "address"
        }
      ],
      "name": "getUserFiles",
      "outputs": [
        {
          "components": [
            {
              "name": "file_name",
              "type": "string"
            },
            {
              "name": "file_type",
              "type": "string"
            },
            {
              "name": "file_hash",
              "type": "string"
            }
          ],
          "name": "",
          "type": "tuple[]"
        }
      ],
      "payable": false,
      "stateMutability": "view",
      "type": "function",
      "signature": "0x1fc37922"
    },
    {
      "constant": true,
      "inputs": [],
      "name": "getPatientInfo",
      "outputs": [
        {
          "name": "",
          "type": "string"
        },
        {
          "name": "",
          "type": "address"
        },
        {
          "name": "",
          "type": "uint8"
        },
        {
          "name": "",
          "type": "bytes32[]"
        },
        {
          "name": "",
          "type": "address[]"
        }
      ],
      "payable": false,
      "stateMutability": "view",
      "type": "function",
      "signature": "0x326df664"
    },
    {
      "constant": true,
      "inputs": [],
      "name": "getDoctorInfo",
      "outputs": [
        {
          "name": "",
          "type": "string"
        },
        {
          "name": "",
          "type": "address"
        },
        {
          "name": "",
          "type": "address[]"
        }
      ],
      "payable": false,
      "stateMutability": "view",
      "type": "function",
      "signature": "0xb380f5c6"
    },
    {
      "constant": true,
      "inputs": [
        {
          "name": "_user",
          "type": "address"
        }
      ],
      "name": "checkProfile",
      "outputs": [
        {
          "name": "",
          "type": "string"
        },
        {
          "name": "",
          "type": "string"
        }
      ],
      "payable": false,
      "stateMutability": "view",
      "type": "function",
      "signature": "0x01d99258"
    },
    {
      "constant": true,
      "inputs": [
        {
          "name": "pat",
          "type": "address"
        }
      ],
      "name": "getPatientInfoForDoctor",
      "outputs": [
        {
          "name": "",
          "type": "string"
        },
        {
          "name": "",
          "type": "uint8"
        },
        {
          "name": "",
          "type": "address"
        },
        {
          "components": [
            {
              "name": "file_name",
              "type": "string"
            },
            {
              "name": "file_type",
              "type": "string"
            },
            {
              "name": "file_hash",
              "type": "string"
            }
          ],
          "name": "",
          "type": "tuple[]"
        }
      ],
      "payable": false,
      "stateMutability": "view",
      "type": "function",
      "signature": "0xfe59cc1a"
    },
    {
      "constant": true,
      "inputs": [
        {
          "name": "fileHashId",
          "type": "bytes32"
        },
        {
          "name": "role",
          "type": "string"
        },
        {
          "name": "id",
          "type": "address"
        },
        {
          "name": "pat",
          "type": "address"
        }
      ],
      "name": "getFileSecret",
      "outputs": [
        {
          "name": "",
          "type": "string"
        }
      ],
      "payable": false,
      "stateMutability": "view",
      "type": "function",
      "signature": "0xcf954d45"
    },
    {
      "constant": true,
      "inputs": [
        {
          "name": "doc",
          "type": "address"
        },
        {
          "name": "pat",
          "type": "address"
        },
        {
          "name": "fileHashId",
          "type": "bytes32"
        }
      ],
      "name": "getFileInfoDoctor",
      "outputs": [
        {
          "name": "",
          "type": "string"
        },
        {
          "name": "",
          "type": "string"
        }
      ],
      "payable": false,
      "stateMutability": "view",
      "type": "function",
      "signature": "0x7f34cf94"
    },
    {
      "constant": true,
      "inputs": [
        {
          "name": "pat",
          "type": "address"
        },
        {
          "name": "fileHashId",
          "type": "bytes32"
        }
      ],
      "name": "getFileInfoPatient",
      "outputs": [
        {
          "name": "",
          "type": "string"
        },
        {
          "name": "",
          "type": "string"
        }
      ],
      "payable": false,
      "stateMutability": "view",
      "type": "function",
      "signature": "0xb259832d"
    }
  ],
  "bytecode": "0x608060405234801561001057600080fd5b50336000806101000a81548173ffffffffffffffffffffffffffffffffffffffff021916908373ffffffffffffffffffffffffffffffffffffffff16021790555061568e80620000616000396000f3fe6080604052600436106100c5576000357c0100000000000000000000000000000000000000000000000000000000900463ffffffff16806301d99258146100ca5780631c8e251c146101085780631fc37922146101315780632ae48e401461016e578063326df664146101975780636459d52f146101c65780637120203a146101ef5780637f34cf94146102185780639f6a7a1114610256578063b259832d1461027f578063b380f5c6146102bd578063cf954d45146102ea578063fe59cc1a14610327575b600080fd5b3480156100d657600080fd5b506100f160048036036100ec9190810190614e15565b610367565b6040516100ff929190615427565b60405180910390f35b34801561011457600080fd5b5061012f600480360361012a9190810190614e15565b610922565b005b34801561013d57600080fd5b5061015860048036036101539190810190614e15565b611043565b6040516101659190615336565b60405180910390f35b34801561017a57600080fd5b5061019560048036036101909190810190615030565b6112c8565b005b3480156101a357600080fd5b506101ac61163f565b6040516101bd9594939291906153bf565b60405180910390f35b3480156101d257600080fd5b506101ed60048036036101e89190810190614f44565b611b5d565b005b3480156101fb57600080fd5b50610216600480360361021191908101906150c7565b611f33565b005b34801561022457600080fd5b5061023f600480360361023a9190810190614e3e565b61241d565b60405161024d929190615427565b60405180910390f35b34801561026257600080fd5b5061027d60048036036102789190810190614f85565b612c50565b005b34801561028b57600080fd5b506102a660048036036102a19190810190614e8d565b61309b565b6040516102b4929190615427565b60405180910390f35b3480156102c957600080fd5b506102d26136b0565b6040516102e19392919061537a565b60405180910390f35b3480156102f657600080fd5b50610311600480360361030c9190810190614ec9565b613acf565b60405161031e9190615358565b60405180910390f35b34801561033357600080fd5b5061034e60048036036103499190810190614e15565b613e7b565b60405161035e949392919061545e565b60405180910390f35b6060806000809054906101000a900473ffffffffffffffffffffffffffffffffffffffff1673ffffffffffffffffffffffffffffffffffffffff163373ffffffffffffffffffffffffffffffffffffffff161415156103c557600080fd5b6103cd614afc565b600360008573ffffffffffffffffffffffffffffffffffffffff1673ffffffffffffffffffffffffffffffffffffffff16815260200190815260200160002060a06040519081016040529081600082018054600181600116156101000203166002900480601f0160208091040260200160405190810160405280929190818152602001828054600181600116156101000203166002900480156104b15780601f10610486576101008083540402835291602001916104b1565b820191906000526020600020905b81548152906001019060200180831161049457829003601f168201915b505050505081526020016001820160009054906101000a900460ff1660ff1660ff1681526020016001820160019054906101000a900473ffffffffffffffffffffffffffffffffffffffff1673ffffffffffffffffffffffffffffffffffffffff1673ffffffffffffffffffffffffffffffffffffffff1681526020016002820180548060200260200160405190810160405280929190818152602001828054801561057c57602002820191906000526020600020905b815481526020019060010190808311610568575b505050505081526020016003820180548060200260200160405190810160405280929190818152602001828054801561060a57602002820191906000526020600020905b8160009054906101000a900473ffffffffffffffffffffffffffffffffffffffff1673ffffffffffffffffffffffffffffffffffffffff16815260200190600101908083116105c0575b505050505081525050905061061d614b45565b600160008673ffffffffffffffffffffffffffffffffffffffff1673ffffffffffffffffffffffffffffffffffffffff16815260200190815260200160002060606040519081016040529081600082018054600181600116156101000203166002900480601f0160208091040260200160405190810160405280929190818152602001828054600181600116156101000203166002900480156107015780601f106106d657610100808354040283529160200191610701565b820191906000526020600020905b8154815290600101906020018083116106e457829003601f168201915b505050505081526020016001820160009054906101000a900473ffffffffffffffffffffffffffffffffffffffff1673ffffffffffffffffffffffffffffffffffffffff1673ffffffffffffffffffffffffffffffffffffffff168152602001600282018054806020026020016040519081016040528092919081815260200182805480156107e557602002820191906000526020600020905b8160009054906101000a900473ffffffffffffffffffffffffffffffffffffffff1673ffffffffffffffffffffffffffffffffffffffff168152602001906001019080831161079b575b5050505050815250509050600073ffffffffffffffffffffffffffffffffffffffff16826040015173ffffffffffffffffffffffffffffffffffffffff1611156108725781600001518090506040805190810160405280600781526020017f70617469656e740000000000000000000000000000000000000000000000000081525093509350505061091d565b600073ffffffffffffffffffffffffffffffffffffffff16816020015173ffffffffffffffffffffffffffffffffffffffff1611156108f45780600001518090506040805190810160405280600681526020017f646f63746f72000000000000000000000000000000000000000000000000000081525093509350505061091d565b602060405190810160405280600081525060206040519081016040528060008152509350935050505b915091565b3361092b614afc565b600360008373ffffffffffffffffffffffffffffffffffffffff1673ffffffffffffffffffffffffffffffffffffffff16815260200190815260200160002060a06040519081016040529081600082018054600181600116156101000203166002900480601f016020809104026020016040519081016040528092919081815260200182805460018160011615610100020316600290048015610a0f5780601f106109e457610100808354040283529160200191610a0f565b820191906000526020600020905b8154815290600101906020018083116109f257829003601f168201915b505050505081526020016001820160009054906101000a900460ff1660ff1660ff1681526020016001820160019054906101000a900473ffffffffffffffffffffffffffffffffffffffff1673ffffffffffffffffffffffffffffffffffffffff1673ffffffffffffffffffffffffffffffffffffffff16815260200160028201805480602002602001604051908101604052809291908181526020018280548015610ada57602002820191906000526020600020905b815481526020019060010190808311610ac6575b5050505050815260200160038201805480602002602001604051908101604052809291908181526020018280548015610b6857602002820191906000526020600020905b8160009054906101000a900473ffffffffffffffffffffffffffffffffffffffff1673ffffffffffffffffffffffffffffffffffffffff1681526020019060010190808311610b1e575b5050505050815250509050600073ffffffffffffffffffffffffffffffffffffffff16816040015173ffffffffffffffffffffffffffffffffffffffff16111515610bb257600080fd5b82610bbb614b45565b600160008373ffffffffffffffffffffffffffffffffffffffff1673ffffffffffffffffffffffffffffffffffffffff16815260200190815260200160002060606040519081016040529081600082018054600181600116156101000203166002900480601f016020809104026020016040519081016040528092919081815260200182805460018160011615610100020316600290048015610c9f5780601f10610c7457610100808354040283529160200191610c9f565b820191906000526020600020905b815481529060010190602001808311610c8257829003601f168201915b505050505081526020016001820160009054906101000a900473ffffffffffffffffffffffffffffffffffffffff1673ffffffffffffffffffffffffffffffffffffffff1673ffffffffffffffffffffffffffffffffffffffff16815260200160028201805480602002602001604051908101604052809291908181526020018280548015610d8357602002820191906000526020600020905b8160009054906101000a900473ffffffffffffffffffffffffffffffffffffffff1673ffffffffffffffffffffffffffffffffffffffff1681526020019060010190808311610d39575b5050505050815250509050600073ffffffffffffffffffffffffffffffffffffffff16816020015173ffffffffffffffffffffffffffffffffffffffff16111515610dcd57600080fd5b6000600360003373ffffffffffffffffffffffffffffffffffffffff1673ffffffffffffffffffffffffffffffffffffffff16815260200190815260200160002090506000600160008873ffffffffffffffffffffffffffffffffffffffff1673ffffffffffffffffffffffffffffffffffffffff16815260200190815260200160002090506001600460003373ffffffffffffffffffffffffffffffffffffffff1673ffffffffffffffffffffffffffffffffffffffff16815260200190815260200160002060008973ffffffffffffffffffffffffffffffffffffffff1673ffffffffffffffffffffffffffffffffffffffff16815260200190815260200160002054101515610ede57600080fd5b6000826003018890806001815401808255809150509060018203906000526020600020016000909192909190916101000a81548173ffffffffffffffffffffffffffffffffffffffff021916908373ffffffffffffffffffffffffffffffffffffffff16021790555090508060088190555080600460003373ffffffffffffffffffffffffffffffffffffffff1673ffffffffffffffffffffffffffffffffffffffff16815260200190815260200160002060008a73ffffffffffffffffffffffffffffffffffffffff1673ffffffffffffffffffffffffffffffffffffffff16815260200190815260200160002081905550816002013390806001815401808255809150509060018203906000526020600020016000909192909190916101000a81548173ffffffffffffffffffffffffffffffffffffffff021916908373ffffffffffffffffffffffffffffffffffffffff160217905550505050505050505050565b6060600760008373ffffffffffffffffffffffffffffffffffffffff1673ffffffffffffffffffffffffffffffffffffffff168152602001908152602001600020805480602002602001604051908101604052809291908181526020016000905b828210156112bd578382906000526020600020906003020160606040519081016040529081600082018054600181600116156101000203166002900480601f0160208091040260200160405190810160405280929190818152602001828054600181600116156101000203166002900480156111615780601f1061113657610100808354040283529160200191611161565b820191906000526020600020905b81548152906001019060200180831161114457829003601f168201915b50505050508152602001600182018054600181600116156101000203166002900480601f0160208091040260200160405190810160405280929190818152602001828054600181600116156101000203166002900480156112035780601f106111d857610100808354040283529160200191611203565b820191906000526020600020905b8154815290600101906020018083116111e657829003601f168201915b50505050508152602001600282018054600181600116156101000203166002900480601f0160208091040260200160405190810160405280929190818152602001828054600181600116156101000203166002900480156112a55780601f1061127a576101008083540402835291602001916112a5565b820191906000526020600020905b81548152906001019060200180831161128857829003601f168201915b505050505081525050815260200190600101906110a4565b505050509050919050565b336112d1614afc565b600360008373ffffffffffffffffffffffffffffffffffffffff1673ffffffffffffffffffffffffffffffffffffffff16815260200190815260200160002060a06040519081016040529081600082018054600181600116156101000203166002900480601f0160208091040260200160405190810160405280929190818152602001828054600181600116156101000203166002900480156113b55780601f1061138a576101008083540402835291602001916113b5565b820191906000526020600020905b81548152906001019060200180831161139857829003601f168201915b505050505081526020016001820160009054906101000a900460ff1660ff1660ff1681526020016001820160019054906101000a900473ffffffffffffffffffffffffffffffffffffffff1673ffffffffffffffffffffffffffffffffffffffff1673ffffffffffffffffffffffffffffffffffffffff1681526020016002820180548060200260200160405190810160405280929190818152602001828054801561148057602002820191906000526020600020905b81548152602001906001019080831161146c575b505050505081526020016003820180548060200260200160405190810160405280929190818152602001828054801561150e57602002820191906000526020600020905b8160009054906101000a900473ffffffffffffffffffffffffffffffffffffffff1673ffffffffffffffffffffffffffffffffffffffff16815260200190600101908083116114c4575b5050505050815250509050600073ffffffffffffffffffffffffffffffffffffffff16816040015173ffffffffffffffffffffffffffffffffffffffff1611151561155857600080fd5b600760003373ffffffffffffffffffffffffffffffffffffffff1673ffffffffffffffffffffffffffffffffffffffff168152602001908152602001600020606060405190810160405280878152602001868152602001858152509080600181540180825580915050906001820390600052602060002090600302016000909192909190915060008201518160000190805190602001906115fa929190614b7d565b506020820151816001019080519060200190611617929190614b7d565b506040820151816002019080519060200190611634929190614b7d565b505050505050505050565b606060008060608033611650614afc565b600360008373ffffffffffffffffffffffffffffffffffffffff1673ffffffffffffffffffffffffffffffffffffffff16815260200190815260200160002060a06040519081016040529081600082018054600181600116156101000203166002900480601f0160208091040260200160405190810160405280929190818152602001828054600181600116156101000203166002900480156117345780601f1061170957610100808354040283529160200191611734565b820191906000526020600020905b81548152906001019060200180831161171757829003601f168201915b505050505081526020016001820160009054906101000a900460ff1660ff1660ff1681526020016001820160019054906101000a900473ffffffffffffffffffffffffffffffffffffffff1673ffffffffffffffffffffffffffffffffffffffff1673ffffffffffffffffffffffffffffffffffffffff168152602001600282018054806020026020016040519081016040528092919081815260200182805480156117ff57602002820191906000526020600020905b8154815260200190600101908083116117eb575b505050505081526020016003820180548060200260200160405190810160405280929190818152602001828054801561188d57602002820191906000526020600020905b8160009054906101000a900473ffffffffffffffffffffffffffffffffffffffff1673ffffffffffffffffffffffffffffffffffffffff1681526020019060010190808311611843575b5050505050815250509050600073ffffffffffffffffffffffffffffffffffffffff16816040015173ffffffffffffffffffffffffffffffffffffffff161115156118d757600080fd5b6118df614afc565b600360003373ffffffffffffffffffffffffffffffffffffffff1673ffffffffffffffffffffffffffffffffffffffff16815260200190815260200160002060a06040519081016040529081600082018054600181600116156101000203166002900480601f0160208091040260200160405190810160405280929190818152602001828054600181600116156101000203166002900480156119c35780601f10611998576101008083540402835291602001916119c3565b820191906000526020600020905b8154815290600101906020018083116119a657829003601f168201915b505050505081526020016001820160009054906101000a900460ff1660ff1660ff1681526020016001820160019054906101000a900473ffffffffffffffffffffffffffffffffffffffff1673ffffffffffffffffffffffffffffffffffffffff1673ffffffffffffffffffffffffffffffffffffffff16815260200160028201805480602002602001604051908101604052809291908181526020018280548015611a8e57602002820191906000526020600020905b815481526020019060010190808311611a7a575b5050505050815260200160038201805480602002602001604051908101604052809291908181526020018280548015611b1c57602002820191906000526020600020905b8160009054906101000a900473ffffffffffffffffffffffffffffffffffffffff1673ffffffffffffffffffffffffffffffffffffffff1681526020019060010190808311611ad2575b505050505081525050905080600001518160400151826020015183606001518460800151849450819150809050975097509750975097505050509091929394565b611b65614b45565b600160003373ffffffffffffffffffffffffffffffffffffffff1673ffffffffffffffffffffffffffffffffffffffff16815260200190815260200160002060606040519081016040529081600082018054600181600116156101000203166002900480601f016020809104026020016040519081016040528092919081815260200182805460018160011615610100020316600290048015611c495780601f10611c1e57610100808354040283529160200191611c49565b820191906000526020600020905b815481529060010190602001808311611c2c57829003601f168201915b505050505081526020016001820160009054906101000a900473ffffffffffffffffffffffffffffffffffffffff1673ffffffffffffffffffffffffffffffffffffffff1673ffffffffffffffffffffffffffffffffffffffff16815260200160028201805480602002602001604051908101604052809291908181526020018280548015611d2d57602002820191906000526020600020905b8160009054906101000a900473ffffffffffffffffffffffffffffffffffffffff1673ffffffffffffffffffffffffffffffffffffffff1681526020019060010190808311611ce3575b50505050508152505090506040518060000190506040518091039020826040516020018082805190602001908083835b602083101515611d825780518252602082019150602081019050602083039250611d5d565b6001836020036101000a0380198251168184511680821785525050505050509050019150506040516020818303038152906040528051906020012014151515611dca57600080fd5b600073ffffffffffffffffffffffffffffffffffffffff16816020015173ffffffffffffffffffffffffffffffffffffffff1611151515611e0a57600080fd5b6060604051908101604052808381526020013373ffffffffffffffffffffffffffffffffffffffff1681526020016000604051908082528060200260200182016040528015611e685781602001602082028038833980820191505090505b50815250600160003373ffffffffffffffffffffffffffffffffffffffff1673ffffffffffffffffffffffffffffffffffffffff1681526020019081526020016000206000820151816000019080519060200190611ec7929190614b7d565b5060208201518160010160006101000a81548173ffffffffffffffffffffffffffffffffffffffff021916908373ffffffffffffffffffffffffffffffffffffffff1602179055506040820151816002019080519060200190611f2b929190614bfd565b509050505050565b611f3b614afc565b600360003373ffffffffffffffffffffffffffffffffffffffff1673ffffffffffffffffffffffffffffffffffffffff16815260200190815260200160002060a06040519081016040529081600082018054600181600116156101000203166002900480601f01602080910402602001604051908101604052809291908181526020018280546001816001161561010002031660029004801561201f5780601f10611ff45761010080835404028352916020019161201f565b820191906000526020600020905b81548152906001019060200180831161200257829003601f168201915b505050505081526020016001820160009054906101000a900460ff1660ff1660ff1681526020016001820160019054906101000a900473ffffffffffffffffffffffffffffffffffffffff1673ffffffffffffffffffffffffffffffffffffffff1673ffffffffffffffffffffffffffffffffffffffff168152602001600282018054806020026020016040519081016040528092919081815260200182805480156120ea57602002820191906000526020600020905b8154815260200190600101908083116120d6575b505050505081526020016003820180548060200260200160405190810160405280929190818152602001828054801561217857602002820191906000526020600020905b8160009054906101000a900473ffffffffffffffffffffffffffffffffffffffff1673ffffffffffffffffffffffffffffffffffffffff168152602001906001019080831161212e575b50505050508152505090506040518060000190506040518091039020836040516020018082805190602001908083835b6020831015156121cd57805182526020820191506020810190506020830392506121a8565b6001836020036101000a038019825116818451168082178552505050505050905001915050604051602081830303815290604052805190602001201415151561221557600080fd5b60008260ff1611801561222b575060648260ff16105b151561223657600080fd5b600073ffffffffffffffffffffffffffffffffffffffff16816040015173ffffffffffffffffffffffffffffffffffffffff161115151561227657600080fd5b60a0604051908101604052808481526020018360ff1681526020013373ffffffffffffffffffffffffffffffffffffffff16815260200160006040519080825280602002602001820160405280156122dd5781602001602082028038833980820191505090505b50815260200160006040519080825280602002602001820160405280156123135781602001602082028038833980820191505090505b50815250600360003373ffffffffffffffffffffffffffffffffffffffff1673ffffffffffffffffffffffffffffffffffffffff1681526020019081526020016000206000820151816000019080519060200190612372929190614b7d565b5060208201518160010160006101000a81548160ff021916908360ff16021790555060408201518160010160016101000a81548173ffffffffffffffffffffffffffffffffffffffff021916908373ffffffffffffffffffffffffffffffffffffffff16021790555060608201518160020190805190602001906123f7929190614c87565b506080820151816003019080519060200190612414929190614bfd565b50905050505050565b6060806000809054906101000a900473ffffffffffffffffffffffffffffffffffffffff1673ffffffffffffffffffffffffffffffffffffffff163373ffffffffffffffffffffffffffffffffffffffff1614151561247b57600080fd5b83612484614afc565b600360008373ffffffffffffffffffffffffffffffffffffffff1673ffffffffffffffffffffffffffffffffffffffff16815260200190815260200160002060a06040519081016040529081600082018054600181600116156101000203166002900480601f0160208091040260200160405190810160405280929190818152602001828054600181600116156101000203166002900480156125685780601f1061253d57610100808354040283529160200191612568565b820191906000526020600020905b81548152906001019060200180831161254b57829003601f168201915b505050505081526020016001820160009054906101000a900460ff1660ff1660ff1681526020016001820160019054906101000a900473ffffffffffffffffffffffffffffffffffffffff1673ffffffffffffffffffffffffffffffffffffffff1673ffffffffffffffffffffffffffffffffffffffff1681526020016002820180548060200260200160405190810160405280929190818152602001828054801561263357602002820191906000526020600020905b81548152602001906001019080831161261f575b50505050508152602001600382018054806020026020016040519081016040528092919081815260200182805480156126c157602002820191906000526020600020905b8160009054906101000a900473ffffffffffffffffffffffffffffffffffffffff1673ffffffffffffffffffffffffffffffffffffffff1681526020019060010190808311612677575b5050505050815250509050600073ffffffffffffffffffffffffffffffffffffffff16816040015173ffffffffffffffffffffffffffffffffffffffff1611151561270b57600080fd5b86612714614b45565b600160008373ffffffffffffffffffffffffffffffffffffffff1673ffffffffffffffffffffffffffffffffffffffff16815260200190815260200160002060606040519081016040529081600082018054600181600116156101000203166002900480601f0160208091040260200160405190810160405280929190818152602001828054600181600116156101000203166002900480156127f85780601f106127cd576101008083540402835291602001916127f8565b820191906000526020600020905b8154815290600101906020018083116127db57829003601f168201915b505050505081526020016001820160009054906101000a900473ffffffffffffffffffffffffffffffffffffffff1673ffffffffffffffffffffffffffffffffffffffff1673ffffffffffffffffffffffffffffffffffffffff168152602001600282018054806020026020016040519081016040528092919081815260200182805480156128dc57602002820191906000526020600020905b8160009054906101000a900473ffffffffffffffffffffffffffffffffffffffff1673ffffffffffffffffffffffffffffffffffffffff1681526020019060010190808311612892575b5050505050815250509050600073ffffffffffffffffffffffffffffffffffffffff16816020015173ffffffffffffffffffffffffffffffffffffffff1611151561292657600080fd5b6040805190810160405280600681526020017f646f63746f72000000000000000000000000000000000000000000000000000081525089888a600060405180807f646f63746f72000000000000000000000000000000000000000000000000000081525060060190506040518091039020856040516020018082805190602001908083835b6020831015156129d057805182526020820191506020810190506020830392506129ab565b6001836020036101000a038019825116818451168082178552505050505050905001915050604051602081830303815290604052805190602001201415612b03576000600460008473ffffffffffffffffffffffffffffffffffffffff1673ffffffffffffffffffffffffffffffffffffffff16815260200190815260200160002060008673ffffffffffffffffffffffffffffffffffffffff1673ffffffffffffffffffffffffffffffffffffffff16815260200190815260200160002054111515612a9c57600080fd5b600660008373ffffffffffffffffffffffffffffffffffffffff1673ffffffffffffffffffffffffffffffffffffffff1681526020019081526020016000206000848152602001908152602001600020549050600081111515612afe57600080fd5b612c17565b60405180807f70617469656e740000000000000000000000000000000000000000000000000081525060070190506040518091039020856040516020018082805190602001908083835b602083101515612b725780518252602082019150602081019050602083039250612b4d565b6001836020036101000a038019825116818451168082178552505050505050905001915050604051602081830303815290604052805190602001201415612c1657600660008573ffffffffffffffffffffffffffffffffffffffff1673ffffffffffffffffffffffffffffffffffffffff1681526020019081526020016000206000848152602001908152602001600020549050600081111515612c1557600080fd5b5b5b612c1f614cd4565b612c288d614822565b9050806000015181602001518191508090509b509b5050505050505050505050935093915050565b33612c59614afc565b600360008373ffffffffffffffffffffffffffffffffffffffff1673ffffffffffffffffffffffffffffffffffffffff16815260200190815260200160002060a06040519081016040529081600082018054600181600116156101000203166002900480601f016020809104026020016040519081016040528092919081815260200182805460018160011615610100020316600290048015612d3d5780601f10612d1257610100808354040283529160200191612d3d565b820191906000526020600020905b815481529060010190602001808311612d2057829003601f168201915b505050505081526020016001820160009054906101000a900460ff1660ff1660ff1681526020016001820160019054906101000a900473ffffffffffffffffffffffffffffffffffffffff1673ffffffffffffffffffffffffffffffffffffffff1673ffffffffffffffffffffffffffffffffffffffff16815260200160028201805480602002602001604051908101604052809291908181526020018280548015612e0857602002820191906000526020600020905b815481526020019060010190808311612df4575b5050505050815260200160038201805480602002602001604051908101604052809291908181526020018280548015612e9657602002820191906000526020600020905b8160009054906101000a900473ffffffffffffffffffffffffffffffffffffffff1673ffffffffffffffffffffffffffffffffffffffff1681526020019060010190808311612e4c575b5050505050815250509050600073ffffffffffffffffffffffffffffffffffffffff16816040015173ffffffffffffffffffffffffffffffffffffffff16111515612ee057600080fd5b6000600360003373ffffffffffffffffffffffffffffffffffffffff1673ffffffffffffffffffffffffffffffffffffffff16815260200190815260200160002090506001600660003373ffffffffffffffffffffffffffffffffffffffff1673ffffffffffffffffffffffffffffffffffffffff168152602001908152602001600020600087815260200190815260200160002054101515612f8257600080fd5b60606040519081016040528088815260200187815260200185815250600560008781526020019081526020016000206000820151816000019080519060200190612fcd929190614b7d565b506020820151816001019080519060200190612fea929190614b7d565b506040820151816002019080519060200190613007929190614b7d565b509050506000816002018690806001815401808255809150509060018203906000526020600020016000909192909190915055905080600660003373ffffffffffffffffffffffffffffffffffffffff1673ffffffffffffffffffffffffffffffffffffffff1681526020019081526020016000206000888152602001908152602001600020819055505050505050505050565b6060806000809054906101000a900473ffffffffffffffffffffffffffffffffffffffff1673ffffffffffffffffffffffffffffffffffffffff163373ffffffffffffffffffffffffffffffffffffffff161415156130f957600080fd5b83613102614afc565b600360008373ffffffffffffffffffffffffffffffffffffffff1673ffffffffffffffffffffffffffffffffffffffff16815260200190815260200160002060a06040519081016040529081600082018054600181600116156101000203166002900480601f0160208091040260200160405190810160405280929190818152602001828054600181600116156101000203166002900480156131e65780601f106131bb576101008083540402835291602001916131e6565b820191906000526020600020905b8154815290600101906020018083116131c957829003601f168201915b505050505081526020016001820160009054906101000a900460ff1660ff1660ff1681526020016001820160019054906101000a900473ffffffffffffffffffffffffffffffffffffffff1673ffffffffffffffffffffffffffffffffffffffff1673ffffffffffffffffffffffffffffffffffffffff168152602001600282018054806020026020016040519081016040528092919081815260200182805480156132b157602002820191906000526020600020905b81548152602001906001019080831161329d575b505050505081526020016003820180548060200260200160405190810160405280929190818152602001828054801561333f57602002820191906000526020600020905b8160009054906101000a900473ffffffffffffffffffffffffffffffffffffffff1673ffffffffffffffffffffffffffffffffffffffff16815260200190600101908083116132f5575b5050505050815250509050600073ffffffffffffffffffffffffffffffffffffffff16816040015173ffffffffffffffffffffffffffffffffffffffff1611151561338957600080fd5b6040805190810160405280600781526020017f70617469656e7400000000000000000000000000000000000000000000000000815250868688600060405180807f646f63746f72000000000000000000000000000000000000000000000000000081525060060190506040518091039020856040516020018082805190602001908083835b602083101515613433578051825260208201915060208101905060208303925061340e565b6001836020036101000a038019825116818451168082178552505050505050905001915050604051602081830303815290604052805190602001201415613566576000600460008473ffffffffffffffffffffffffffffffffffffffff1673ffffffffffffffffffffffffffffffffffffffff16815260200190815260200160002060008673ffffffffffffffffffffffffffffffffffffffff1673ffffffffffffffffffffffffffffffffffffffff168152602001908152602001600020541115156134ff57600080fd5b600660008373ffffffffffffffffffffffffffffffffffffffff1673ffffffffffffffffffffffffffffffffffffffff168152602001908152602001600020600084815260200190815260200160002054905060008111151561356157600080fd5b61367a565b60405180807f70617469656e740000000000000000000000000000000000000000000000000081525060070190506040518091039020856040516020018082805190602001908083835b6020831015156135d557805182526020820191506020810190506020830392506135b0565b6001836020036101000a03801982511681845116808217855250505050505090500191505060405160208183030381529060405280519060200120141561367957600660008573ffffffffffffffffffffffffffffffffffffffff1673ffffffffffffffffffffffffffffffffffffffff168152602001908152602001600020600084815260200190815260200160002054905060008111151561367857600080fd5b5b5b613682614cd4565b61368b8b614822565b9050806000015181602001518191508090509950995050505050505050509250929050565b606060006060336136bf614b45565b600160008373ffffffffffffffffffffffffffffffffffffffff1673ffffffffffffffffffffffffffffffffffffffff16815260200190815260200160002060606040519081016040529081600082018054600181600116156101000203166002900480601f0160208091040260200160405190810160405280929190818152602001828054600181600116156101000203166002900480156137a35780601f10613778576101008083540402835291602001916137a3565b820191906000526020600020905b81548152906001019060200180831161378657829003601f168201915b505050505081526020016001820160009054906101000a900473ffffffffffffffffffffffffffffffffffffffff1673ffffffffffffffffffffffffffffffffffffffff1673ffffffffffffffffffffffffffffffffffffffff1681526020016002820180548060200260200160405190810160405280929190818152602001828054801561388757602002820191906000526020600020905b8160009054906101000a900473ffffffffffffffffffffffffffffffffffffffff1673ffffffffffffffffffffffffffffffffffffffff168152602001906001019080831161383d575b5050505050815250509050600073ffffffffffffffffffffffffffffffffffffffff16816020015173ffffffffffffffffffffffffffffffffffffffff161115156138d157600080fd5b6138d9614b45565b600160003373ffffffffffffffffffffffffffffffffffffffff1673ffffffffffffffffffffffffffffffffffffffff16815260200190815260200160002060606040519081016040529081600082018054600181600116156101000203166002900480601f0160208091040260200160405190810160405280929190818152602001828054600181600116156101000203166002900480156139bd5780601f10613992576101008083540402835291602001916139bd565b820191906000526020600020905b8154815290600101906020018083116139a057829003601f168201915b505050505081526020016001820160009054906101000a900473ffffffffffffffffffffffffffffffffffffffff1673ffffffffffffffffffffffffffffffffffffffff1673ffffffffffffffffffffffffffffffffffffffff16815260200160028201805480602002602001604051908101604052809291908181526020018280548015613aa157602002820191906000526020600020905b8160009054906101000a900473ffffffffffffffffffffffffffffffffffffffff1673ffffffffffffffffffffffffffffffffffffffff1681526020019060010190808311613a57575b5050505050815250509050806000015181602001518260400151829250809050955095509550505050909192565b6060846060600560008381526020019081526020016000206000018054600181600116156101000203166002900480601f016020809104026020016040519081016040528092919081815260200182805460018160011615610100020316600290048015613b7e5780601f10613b5357610100808354040283529160200191613b7e565b820191906000526020600020905b815481529060010190602001808311613b6157829003601f168201915b5050505050905060008151111515613b9557600080fd5b85858886600060405180807f646f63746f72000000000000000000000000000000000000000000000000000081525060060190506040518091039020856040516020018082805190602001908083835b602083101515613c0a5780518252602082019150602081019050602083039250613be5565b6001836020036101000a038019825116818451168082178552505050505050905001915050604051602081830303815290604052805190602001201415613d3d576000600460008473ffffffffffffffffffffffffffffffffffffffff1673ffffffffffffffffffffffffffffffffffffffff16815260200190815260200160002060008673ffffffffffffffffffffffffffffffffffffffff1673ffffffffffffffffffffffffffffffffffffffff16815260200190815260200160002054111515613cd657600080fd5b600660008373ffffffffffffffffffffffffffffffffffffffff1673ffffffffffffffffffffffffffffffffffffffff1681526020019081526020016000206000848152602001908152602001600020549050600081111515613d3857600080fd5b613e51565b60405180807f70617469656e740000000000000000000000000000000000000000000000000081525060070190506040518091039020856040516020018082805190602001908083835b602083101515613dac5780518252602082019150602081019050602083039250613d87565b6001836020036101000a038019825116818451168082178552505050505050905001915050604051602081830303815290604052805190602001201415613e5057600660008573ffffffffffffffffffffffffffffffffffffffff1673ffffffffffffffffffffffffffffffffffffffff1681526020019081526020016000206000848152602001908152602001600020549050600081111515613e4f57600080fd5b5b5b613e59614cd4565b613e628d614822565b9050806040015198505050505050505050949350505050565b6060600080606084613e8b614afc565b600360008373ffffffffffffffffffffffffffffffffffffffff1673ffffffffffffffffffffffffffffffffffffffff16815260200190815260200160002060a06040519081016040529081600082018054600181600116156101000203166002900480601f016020809104026020016040519081016040528092919081815260200182805460018160011615610100020316600290048015613f6f5780601f10613f4457610100808354040283529160200191613f6f565b820191906000526020600020905b815481529060010190602001808311613f5257829003601f168201915b505050505081526020016001820160009054906101000a900460ff1660ff1660ff1681526020016001820160019054906101000a900473ffffffffffffffffffffffffffffffffffffffff1673ffffffffffffffffffffffffffffffffffffffff1673ffffffffffffffffffffffffffffffffffffffff1681526020016002820180548060200260200160405190810160405280929190818152602001828054801561403a57602002820191906000526020600020905b815481526020019060010190808311614026575b50505050508152602001600382018054806020026020016040519081016040528092919081815260200182805480156140c857602002820191906000526020600020905b8160009054906101000a900473ffffffffffffffffffffffffffffffffffffffff1673ffffffffffffffffffffffffffffffffffffffff168152602001906001019080831161407e575b5050505050815250509050600073ffffffffffffffffffffffffffffffffffffffff16816040015173ffffffffffffffffffffffffffffffffffffffff1611151561411257600080fd5b3361411b614b45565b600160008373ffffffffffffffffffffffffffffffffffffffff1673ffffffffffffffffffffffffffffffffffffffff16815260200190815260200160002060606040519081016040529081600082018054600181600116156101000203166002900480601f0160208091040260200160405190810160405280929190818152602001828054600181600116156101000203166002900480156141ff5780601f106141d4576101008083540402835291602001916141ff565b820191906000526020600020905b8154815290600101906020018083116141e257829003601f168201915b505050505081526020016001820160009054906101000a900473ffffffffffffffffffffffffffffffffffffffff1673ffffffffffffffffffffffffffffffffffffffff1673ffffffffffffffffffffffffffffffffffffffff168152602001600282018054806020026020016040519081016040528092919081815260200182805480156142e357602002820191906000526020600020905b8160009054906101000a900473ffffffffffffffffffffffffffffffffffffffff1673ffffffffffffffffffffffffffffffffffffffff1681526020019060010190808311614299575b5050505050815250509050600073ffffffffffffffffffffffffffffffffffffffff16816020015173ffffffffffffffffffffffffffffffffffffffff1611151561432d57600080fd5b614335614afc565b600360008b73ffffffffffffffffffffffffffffffffffffffff1673ffffffffffffffffffffffffffffffffffffffff16815260200190815260200160002060a06040519081016040529081600082018054600181600116156101000203166002900480601f0160208091040260200160405190810160405280929190818152602001828054600181600116156101000203166002900480156144195780601f106143ee57610100808354040283529160200191614419565b820191906000526020600020905b8154815290600101906020018083116143fc57829003601f168201915b505050505081526020016001820160009054906101000a900460ff1660ff1660ff1681526020016001820160019054906101000a900473ffffffffffffffffffffffffffffffffffffffff1673ffffffffffffffffffffffffffffffffffffffff1673ffffffffffffffffffffffffffffffffffffffff168152602001600282018054806020026020016040519081016040528092919081815260200182805480156144e457602002820191906000526020600020905b8154815260200190600101908083116144d0575b505050505081526020016003820180548060200260200160405190810160405280929190818152602001828054801561457257602002820191906000526020600020905b8160009054906101000a900473ffffffffffffffffffffffffffffffffffffffff1673ffffffffffffffffffffffffffffffffffffffff1681526020019060010190808311614528575b5050505050815250509050806000015181602001518260400151600760008e73ffffffffffffffffffffffffffffffffffffffff1673ffffffffffffffffffffffffffffffffffffffff16815260200190815260200160002083935080805480602002602001604051908101604052809291908181526020016000905b82821015614808578382906000526020600020906003020160606040519081016040529081600082018054600181600116156101000203166002900480601f0160208091040260200160405190810160405280929190818152602001828054600181600116156101000203166002900480156146ac5780601f10614681576101008083540402835291602001916146ac565b820191906000526020600020905b81548152906001019060200180831161468f57829003601f168201915b50505050508152602001600182018054600181600116156101000203166002900480601f01602080910402602001604051908101604052809291908181526020018280546001816001161561010002031660029004801561474e5780601f106147235761010080835404028352916020019161474e565b820191906000526020600020905b81548152906001019060200180831161473157829003601f168201915b50505050508152602001600282018054600181600116156101000203166002900480601f0160208091040260200160405190810160405280929190818152602001828054600181600116156101000203166002900480156147f05780601f106147c5576101008083540402835291602001916147f0565b820191906000526020600020905b8154815290600101906020018083116147d357829003601f168201915b505050505081525050815260200190600101906145ef565b505050509050985098509850985050505050509193509193565b61482a614cd4565b816060600560008381526020019081526020016000206000018054600181600116156101000203166002900480601f0160208091040260200160405190810160405280929190818152602001828054600181600116156101000203166002900480156148d75780601f106148ac576101008083540402835291602001916148d7565b820191906000526020600020905b8154815290600101906020018083116148ba57829003601f168201915b50505050509050600081511115156148ee57600080fd5b6005600085815260200190815260200160002060606040519081016040529081600082018054600181600116156101000203166002900480601f0160208091040260200160405190810160405280929190818152602001828054600181600116156101000203166002900480156149a65780601f1061497b576101008083540402835291602001916149a6565b820191906000526020600020905b81548152906001019060200180831161498957829003601f168201915b50505050508152602001600182018054600181600116156101000203166002900480601f016020809104026020016040519081016040528092919081815260200182805460018160011615610100020316600290048015614a485780601f10614a1d57610100808354040283529160200191614a48565b820191906000526020600020905b815481529060010190602001808311614a2b57829003601f168201915b50505050508152602001600282018054600181600116156101000203166002900480601f016020809104026020016040519081016040528092919081815260200182805460018160011615610100020316600290048015614aea5780601f10614abf57610100808354040283529160200191614aea565b820191906000526020600020905b815481529060010190602001808311614acd57829003601f168201915b50505050508152505092505050919050565b60a06040519081016040528060608152602001600060ff168152602001600073ffffffffffffffffffffffffffffffffffffffff16815260200160608152602001606081525090565b60606040519081016040528060608152602001600073ffffffffffffffffffffffffffffffffffffffff168152602001606081525090565b828054600181600116156101000203166002900490600052602060002090601f016020900481019282601f10614bbe57805160ff1916838001178555614bec565b82800160010185558215614bec579182015b82811115614beb578251825591602001919060010190614bd0565b5b509050614bf99190614cf6565b5090565b828054828255906000526020600020908101928215614c76579160200282015b82811115614c755782518260006101000a81548173ffffffffffffffffffffffffffffffffffffffff021916908373ffffffffffffffffffffffffffffffffffffffff16021790555091602001919060010190614c1d565b5b509050614c839190614d1b565b5090565b828054828255906000526020600020908101928215614cc3579160200282015b82811115614cc2578251825591602001919060010190614ca7565b5b509050614cd09190614d5e565b5090565b6060604051908101604052806060815260200160608152602001606081525090565b614d1891905b80821115614d14576000816000905550600101614cfc565b5090565b90565b614d5b91905b80821115614d5757600081816101000a81549073ffffffffffffffffffffffffffffffffffffffff021916905550600101614d21565b5090565b90565b614d8091905b80821115614d7c576000816000905550600101614d64565b5090565b90565b6000614d8f82356155d8565b905092915050565b6000614da382356155ea565b905092915050565b600082601f8301121515614dbe57600080fd5b8135614dd1614dcc826154de565b6154b1565b91508082526020830160208301858383011115614ded57600080fd5b614df8838284615601565b50505092915050565b6000614e0d82356155f4565b905092915050565b600060208284031215614e2757600080fd5b6000614e3584828501614d83565b91505092915050565b600080600060608486031215614e5357600080fd5b6000614e6186828701614d83565b9350506020614e7286828701614d83565b9250506040614e8386828701614d97565b9150509250925092565b60008060408385031215614ea057600080fd5b6000614eae85828601614d83565b9250506020614ebf85828601614d97565b9150509250929050565b60008060008060808587031215614edf57600080fd5b6000614eed87828801614d97565b945050602085013567ffffffffffffffff811115614f0a57600080fd5b614f1687828801614dab565b9350506040614f2787828801614d83565b9250506060614f3887828801614d83565b91505092959194509250565b600060208284031215614f5657600080fd5b600082013567ffffffffffffffff811115614f7057600080fd5b614f7c84828501614dab565b91505092915050565b60008060008060808587031215614f9b57600080fd5b600085013567ffffffffffffffff811115614fb557600080fd5b614fc187828801614dab565b945050602085013567ffffffffffffffff811115614fde57600080fd5b614fea87828801614dab565b9350506040614ffb87828801614d97565b925050606085013567ffffffffffffffff81111561501857600080fd5b61502487828801614dab565b91505092959194509250565b60008060006060848603121561504557600080fd5b600084013567ffffffffffffffff81111561505f57600080fd5b61506b86828701614dab565b935050602084013567ffffffffffffffff81111561508857600080fd5b61509486828701614dab565b925050604084013567ffffffffffffffff8111156150b157600080fd5b6150bd86828701614dab565b9150509250925092565b600080604083850312156150da57600080fd5b600083013567ffffffffffffffff8111156150f457600080fd5b61510085828601614dab565b925050602061511185828601614e01565b9150509250929050565b6151248161558f565b82525050565b600061513582615531565b8084526020840193506151478361550a565b60005b828110156151795761515d86835161511b565b61516682615568565b915060208601955060018101905061514a565b50849250505092915050565b60006151908261553c565b8084526020840193506151a283615517565b60005b828110156151d4576151b886835161524e565b6151c182615575565b91506020860195506001810190506151a5565b50849250505092915050565b60006151eb82615547565b8084526020840193508360208202850161520485615524565b60005b8481101561523d57838303885261521f8383516152c9565b925061522a82615582565b9150602088019750600181019050615207565b508196508694505050505092915050565b615257816155a1565b82525050565b60006152688261555d565b80845261527c816020860160208601615610565b61528581615643565b602085010191505092915050565b600061529e82615552565b8084526152b2816020860160208601615610565b6152bb81615643565b602085010191505092915050565b600060608301600083015184820360008601526152e68282615293565b915050602083015184820360208601526153008282615293565b9150506040830151848203604086015261531a8282615293565b9150508091505092915050565b615330816155cb565b82525050565b6000602082019050818103600083015261535081846151e0565b905092915050565b60006020820190508181036000830152615372818461525d565b905092915050565b60006060820190508181036000830152615394818661525d565b90506153a3602083018561511b565b81810360408301526153b5818461512a565b9050949350505050565b600060a08201905081810360008301526153d9818861525d565b90506153e8602083018761511b565b6153f56040830186615327565b81810360608301526154078185615185565b9050818103608083015261541b818461512a565b90509695505050505050565b60006040820190508181036000830152615441818561525d565b90508181036020830152615455818461525d565b90509392505050565b60006080820190508181036000830152615478818761525d565b90506154876020830186615327565b615494604083018561511b565b81810360608301526154a681846151e0565b905095945050505050565b6000604051905081810181811067ffffffffffffffff821117156154d457600080fd5b8060405250919050565b600067ffffffffffffffff8211156154f557600080fd5b601f19601f8301169050602081019050919050565b6000602082019050919050565b6000602082019050919050565b6000602082019050919050565b600081519050919050565b600081519050919050565b600081519050919050565b600081519050919050565b600081519050919050565b6000602082019050919050565b6000602082019050919050565b6000602082019050919050565b600061559a826155ab565b9050919050565b6000819050919050565b600073ffffffffffffffffffffffffffffffffffffffff82169050919050565b600060ff82169050919050565b60006155e3826155ab565b9050919050565b6000819050919050565b600060ff82169050919050565b82818337600083830152505050565b60005b8381101561562e578082015181840152602081019050615613565b8381111561563d576000848401525b50505050565b6000601f19601f830116905091905056fea265627a7a723058204da660699abd192a9670fdb8f44cf777edb84cd1dd009198bf6ee793303b17696c6578706572696d656e74616cf50037",
  "source": "pragma solidity >=0.4.21 <0.7.0;\r\npragma experimental ABIEncoderV2;\r\n\r\ncontract optimized_healthCare {\r\n  address private owner;\r\n  mapping (address => doctor) private doctors;// doctor and list of patient profile he can access\r\n  mapping (address => mapping(address => uint)) private doctorToPatient;\r\n  mapping (address => patient) private patients;\r\n  mapping (address => mapping (address => uint)) private patientToDoctor;\r\n  mapping (bytes32 => filesInfo) private hashToFile; //filehash to file info\r\n  mapping (address => mapping (bytes32 => uint)) private patientToFile;\r\n  mapping (address => files[]) private patientFiles;\r\n  uint private gpos;\r\n  struct files{\r\n      string file_name;\r\n      string file_type;\r\n      string file_hash;\r\n  }\r\n  struct filesInfo {\r\n      string file_name;\r\n      string file_type;\r\n      string file_secret;\r\n  }\r\n  \r\n  struct patient {\r\n      string name;\r\n      uint8 age;\r\n      address id;\r\n      bytes32[] files;// hashes of file that belong to this user for display purpose\r\n      address[] doctor_list;\r\n  }\r\n  \r\n  struct doctor {\r\n      string name;\r\n      address id;\r\n      address[] patient_list;\r\n  }\r\n  \r\n  constructor() public {\r\n    owner = msg.sender;\r\n  }\r\n  \r\n  modifier checkDoctor(address id) {\r\n    doctor memory d = doctors[id];\r\n    require(d.id > address(0x0));//check if doctor exist\r\n    _;\r\n  }\r\n  \r\n  modifier checkPatient(address id) {\r\n    patient memory p = patients[id];\r\n    require(p.id > address(0x0));//check if patient exist\r\n    _;\r\n  }\r\n  \r\n  modifier onlyOwner() {\r\n    require(msg.sender == owner);\r\n    _;\r\n  }\r\n  \r\n  modifier checkFileAccess(string memory role, address id, bytes32 fileHashId, address pat) {\r\n    uint pos;\r\n    if(keccak256(abi.encodePacked(role)) == keccak256(\"doctor\")) {\r\n        require(patientToDoctor[pat][id] > 0);\r\n        pos = patientToFile[pat][fileHashId];\r\n        require(pos > 0);   \r\n    }\r\n    else if(keccak256(abi.encodePacked(role)) == keccak256(\"patient\")) {\r\n        pos = patientToFile[id][fileHashId];\r\n        require(pos > 0);\r\n    }\r\n    _; \r\n  }\r\n  \r\n  modifier checkFile(bytes32 fileHashId) {\r\n    bytes memory tempString = bytes(hashToFile[fileHashId].file_name);\r\n    require(tempString.length > 0);//check if file exist\r\n    _;\r\n  }\r\n\r\n  function signupPatient(string memory _name, uint8 _age) public {\r\n     patient memory p = patients[msg.sender];\r\n     require(keccak256(abi.encodePacked(_name)) != keccak256(\"\"));\r\n     require((_age > 0) && (_age < 100));\r\n     require(!(p.id > address(0x0)));\r\n\r\n     patients[msg.sender] = patient({name:_name,age:_age,id:msg.sender,files:new bytes32[](0),doctor_list:new address[](0)});\r\n  }\r\n  \r\n  function signupDoctor(string memory _name) public {\r\n      doctor memory d = doctors[msg.sender];\r\n      require(keccak256(abi.encodePacked(_name)) != keccak256(\"\"));\r\n      require(!(d.id > address(0x0)));\r\n\r\n      doctors[msg.sender] = doctor({name:_name,id:msg.sender,patient_list:new address[](0)});\r\n  }\r\n  \r\n  function grantAccessToDoctor(address doctor_id) public checkPatient(msg.sender) checkDoctor(doctor_id) {\r\n      patient storage p = patients[msg.sender];\r\n      doctor storage d = doctors[doctor_id];\r\n      require(patientToDoctor[msg.sender][doctor_id] < 1);// this means doctor already been access\r\n      \r\n      uint pos = p.doctor_list.push(doctor_id);// new length of array\r\n      gpos = pos;\r\n      patientToDoctor[msg.sender][doctor_id] = pos;\r\n      d.patient_list.push(msg.sender);\r\n  }\r\n  \r\n  function addFile(string memory _file_name, string memory _file_type, bytes32 _fileHash, string memory _file_secret) public checkPatient(msg.sender) {\r\n      patient storage p = patients[msg.sender];\r\n\r\n      require(patientToFile[msg.sender][_fileHash] < 1);\r\n      \r\n      hashToFile[_fileHash] = filesInfo({file_name:_file_name, file_type:_file_type,file_secret:_file_secret});\r\n      uint pos = p.files.push(_fileHash);\r\n      patientToFile[msg.sender][_fileHash] = pos;\r\n  } \r\nfunction addUserFiles(string memory _file_name, string memory _file_type,string memory _file_hash) public checkPatient(msg.sender){\r\n    \r\n    patientFiles[msg.sender].push(files({file_name:_file_name, file_type:_file_type,file_hash:_file_hash}));\r\n}\r\nfunction getUserFiles(address sender)public view returns(files[] memory){\r\n    return patientFiles[sender];\r\n}\r\n  function getPatientInfo() public view checkPatient(msg.sender) returns(string memory,address, uint8, bytes32[] memory , address[] memory) {\r\n      patient memory p = patients[msg.sender];\r\n      return (p.name,p.id, p.age, p.files, p.doctor_list);\r\n  }\r\n  \r\n  function getDoctorInfo() public view checkDoctor(msg.sender) returns(string memory,address, address[] memory){\r\n      doctor memory d = doctors[msg.sender];\r\n      return (d.name,d.id, d.patient_list);\r\n  }\r\n  \r\n  function checkProfile(address _user) public view onlyOwner returns(string memory, string memory){\r\n      patient memory p = patients[_user];\r\n      doctor memory d = doctors[_user];\r\n      \r\n      if(p.id > address(0x0))\r\n          return (p.name, 'patient');\r\n      else if(d.id > address(0x0))\r\n          return (d.name, 'doctor');\r\n      else\r\n          return ('', '');\r\n  }\r\n  \r\n  function getPatientInfoForDoctor(address pat) public view checkPatient(pat) checkDoctor(msg.sender) returns(string memory, uint8, address, files[] memory){\r\n      patient memory p = patients[pat];\r\n\r\n      //require(patientToDoctor[pat][msg.sender] > 0);\r\n\r\n      return (p.name, p.age, p.id, patientFiles[pat]);\r\n  }\r\n  \r\n  function getFileInfo(bytes32 fileHashId) private view checkFile(fileHashId) returns(filesInfo memory) {\r\n      return hashToFile[fileHashId];\r\n  }\r\n  \r\n  function getFileSecret(bytes32 fileHashId, string memory role, address id, address pat) public view \r\n  checkFile(fileHashId) checkFileAccess(role, id, fileHashId, pat)\r\n  returns(string memory) {\r\n      filesInfo memory f = getFileInfo(fileHashId);\r\n      return (f.file_secret);\r\n  }\r\n\r\n  function getFileInfoDoctor(address doc, address pat, bytes32 fileHashId) public view \r\n  onlyOwner checkPatient(pat) checkDoctor(doc) checkFileAccess(\"doctor\", doc, fileHashId, pat)\r\n  returns(string memory, string memory) {\r\n      filesInfo memory f = getFileInfo(fileHashId);\r\n      return (f.file_name, f.file_type);\r\n  }\r\n  \r\n  function getFileInfoPatient(address pat, bytes32 fileHashId) public view \r\n  onlyOwner checkPatient(pat) checkFileAccess(\"patient\", pat, fileHashId, pat) returns(string memory, string memory) {\r\n      filesInfo memory f = getFileInfo(fileHashId);\r\n      return (f.file_name, f.file_type);\r\n  }\r\n  \r\n}",
  "sourcePath": "C:/Users/DELL/Ethereum-EHR/contracts/optimized_healthCare.sol",
  "compiler": {
    "name": "solc",
    "version": "0.5.0+commit.1d4f565a.Emscripten.clang"
  },
  "schemaVersion": "3.0.1",
  "updatedAt": "2022-04-10T16:48:33.093Z",
  "devdoc": {
    "methods": {}
  },
  "userdoc": {
    "methods": {}
  }
}