{
  "contractName": "Patient",
  "abi": [
    {
      "constant": true,
      "inputs": [],
      "name": "getPatientInfo",
      "outputs": [
        {
          "name": "",
          "type": "string"
        },
        {
          "name": "",
          "type": "uint8"
        },
        {
          "name": "",
          "type": "bytes32[]"
        },
        {
          "name": "",
          "type": "address[]"
        }
      ],
      "payable": false,
      "stateMutability": "view",
      "type": "function"
    },
    {
      "constant": false,
      "inputs": [
        {
          "name": "_name",
          "type": "string"
        },
        {
          "name": "_age",
          "type": "uint8"
        }
      ],
      "name": "signupPatient",
      "outputs": [],
      "payable": false,
      "stateMutability": "nonpayable",
      "type": "function"
    }
  ],
  "bytecode": "0x608060405234801561001057600080fd5b50610ea7806100206000396000f3fe60806040526004361061004c576000357c0100000000000000000000000000000000000000000000000000000000900463ffffffff168063326df664146100515780637120203a1461017e575b600080fd5b34801561005d57600080fd5b50610066610253565b60405180806020018560ff1660ff1681526020018060200180602001848103845288818151815260200191508051906020019080838360005b838110156100ba57808201518184015260208101905061009f565b50505050905090810190601f1680156100e75780820380516001836020036101000a031916815260200191505b50848103835286818151815260200191508051906020019060200280838360005b83811015610123578082015181840152602081019050610108565b50505050905001848103825285818151815260200191508051906020019060200280838360005b8381101561016557808201518184015260208101905061014a565b5050505090500197505050505050505060405180910390f35b34801561018a57600080fd5b50610251600480360360408110156101a157600080fd5b81019080803590602001906401000000008111156101be57600080fd5b8201836020820111156101d057600080fd5b803590602001918460018302840111640100000000831117156101f257600080fd5b91908080601f016020809104026020016040519081016040528093929190818152602001838380828437600081840152601f19601f820116905080830192505050505050509192919290803560ff169060200190929190505050610766565b005b6060600060608033610263610c4e565b6000808373ffffffffffffffffffffffffffffffffffffffff1673ffffffffffffffffffffffffffffffffffffffff16815260200190815260200160002060a06040519081016040529081600082018054600181600116156101000203166002900480601f0160208091040260200160405190810160405280929190818152602001828054600181600116156101000203166002900480156103465780601f1061031b57610100808354040283529160200191610346565b820191906000526020600020905b81548152906001019060200180831161032957829003601f168201915b505050505081526020016001820160009054906101000a900460ff1660ff1660ff1681526020016001820160019054906101000a900473ffffffffffffffffffffffffffffffffffffffff1673ffffffffffffffffffffffffffffffffffffffff1673ffffffffffffffffffffffffffffffffffffffff1681526020016002820180548060200260200160405190810160405280929190818152602001828054801561041157602002820191906000526020600020905b8154815260200190600101908083116103fd575b505050505081526020016003820180548060200260200160405190810160405280929190818152602001828054801561049f57602002820191906000526020600020905b8160009054906101000a900473ffffffffffffffffffffffffffffffffffffffff1673ffffffffffffffffffffffffffffffffffffffff1681526020019060010190808311610455575b5050505050815250509050600073ffffffffffffffffffffffffffffffffffffffff16816040015173ffffffffffffffffffffffffffffffffffffffff161115156104e957600080fd5b6104f1610c4e565b6000803373ffffffffffffffffffffffffffffffffffffffff1673ffffffffffffffffffffffffffffffffffffffff16815260200190815260200160002060a06040519081016040529081600082018054600181600116156101000203166002900480601f0160208091040260200160405190810160405280929190818152602001828054600181600116156101000203166002900480156105d45780601f106105a9576101008083540402835291602001916105d4565b820191906000526020600020905b8154815290600101906020018083116105b757829003601f168201915b505050505081526020016001820160009054906101000a900460ff1660ff1660ff1681526020016001820160019054906101000a900473ffffffffffffffffffffffffffffffffffffffff1673ffffffffffffffffffffffffffffffffffffffff1673ffffffffffffffffffffffffffffffffffffffff1681526020016002820180548060200260200160405190810160405280929190818152602001828054801561069f57602002820191906000526020600020905b81548152602001906001019080831161068b575b505050505081526020016003820180548060200260200160405190810160405280929190818152602001828054801561072d57602002820191906000526020600020905b8160009054906101000a900473ffffffffffffffffffffffffffffffffffffffff1673ffffffffffffffffffffffffffffffffffffffff16815260200190600101908083116106e3575b50505050508152505090508060000151816020015182606001518360800151839350819150809050965096509650965050505090919293565b61076e610c4e565b6000803373ffffffffffffffffffffffffffffffffffffffff1673ffffffffffffffffffffffffffffffffffffffff16815260200190815260200160002060a06040519081016040529081600082018054600181600116156101000203166002900480601f0160208091040260200160405190810160405280929190818152602001828054600181600116156101000203166002900480156108515780601f1061082657610100808354040283529160200191610851565b820191906000526020600020905b81548152906001019060200180831161083457829003601f168201915b505050505081526020016001820160009054906101000a900460ff1660ff1660ff1681526020016001820160019054906101000a900473ffffffffffffffffffffffffffffffffffffffff1673ffffffffffffffffffffffffffffffffffffffff1673ffffffffffffffffffffffffffffffffffffffff1681526020016002820180548060200260200160405190810160405280929190818152602001828054801561091c57602002820191906000526020600020905b815481526020019060010190808311610908575b50505050508152602001600382018054806020026020016040519081016040528092919081815260200182805480156109aa57602002820191906000526020600020905b8160009054906101000a900473ffffffffffffffffffffffffffffffffffffffff1673ffffffffffffffffffffffffffffffffffffffff1681526020019060010190808311610960575b50505050508152505090506040518060000190506040518091039020836040516020018082805190602001908083835b6020831015156109ff57805182526020820191506020810190506020830392506109da565b6001836020036101000a0380198251168184511680821785525050505050509050019150506040516020818303038152906040528051906020012014151515610a4757600080fd5b60008260ff16118015610a5d575060648260ff16105b1515610a6857600080fd5b600073ffffffffffffffffffffffffffffffffffffffff16816040015173ffffffffffffffffffffffffffffffffffffffff1611151515610aa857600080fd5b60a0604051908101604052808481526020018360ff1681526020013373ffffffffffffffffffffffffffffffffffffffff1681526020016000604051908082528060200260200182016040528015610b0f5781602001602082028038833980820191505090505b5081526020016000604051908082528060200260200182016040528015610b455781602001602082028038833980820191505090505b508152506000803373ffffffffffffffffffffffffffffffffffffffff1673ffffffffffffffffffffffffffffffffffffffff1681526020019081526020016000206000820151816000019080519060200190610ba3929190610c97565b5060208201518160010160006101000a81548160ff021916908360ff16021790555060408201518160010160016101000a81548173ffffffffffffffffffffffffffffffffffffffff021916908373ffffffffffffffffffffffffffffffffffffffff1602179055506060820151816002019080519060200190610c28929190610d17565b506080820151816003019080519060200190610c45929190610d64565b50905050505050565b60a06040519081016040528060608152602001600060ff168152602001600073ffffffffffffffffffffffffffffffffffffffff16815260200160608152602001606081525090565b828054600181600116156101000203166002900490600052602060002090601f016020900481019282601f10610cd857805160ff1916838001178555610d06565b82800160010185558215610d06579182015b82811115610d05578251825591602001919060010190610cea565b5b509050610d139190610dee565b5090565b828054828255906000526020600020908101928215610d53579160200282015b82811115610d52578251825591602001919060010190610d37565b5b509050610d609190610e13565b5090565b828054828255906000526020600020908101928215610ddd579160200282015b82811115610ddc5782518260006101000a81548173ffffffffffffffffffffffffffffffffffffffff021916908373ffffffffffffffffffffffffffffffffffffffff16021790555091602001919060010190610d84565b5b509050610dea9190610e38565b5090565b610e1091905b80821115610e0c576000816000905550600101610df4565b5090565b90565b610e3591905b80821115610e31576000816000905550600101610e19565b5090565b90565b610e7891905b80821115610e7457600081816101000a81549073ffffffffffffffffffffffffffffffffffffffff021916905550600101610e3e565b5090565b9056fea165627a7a7230582053a35e00a9d08d25ac0d8f992bd5d6f96a520762f2b42ef47a74422d3f42cb920029",
  "source": "pragma solidity >=0.4.21 <0.7.0;\r\n\r\ncontract Patient {\r\n    mapping (address => patient) internal patients;\r\n    mapping (address => mapping (address => uint)) internal patientToDoctor;\r\n    mapping (address => mapping (bytes32 => uint)) internal patientToFile;\r\n    \r\n    struct patient {\r\n        string name;\r\n        uint8 age;\r\n        address id;\r\n        bytes32[] files;// hashes of file that belong to this user for display purpose\r\n        address[]  doctor_list;\r\n    }\r\n    \r\n    modifier checkPatient(address id) {\r\n        patient memory p = patients[id];\r\n        require(p.id > address(0x0));//check if patient exist\r\n        _;\r\n    }\r\n    \r\n    function getPatientInfo() public view checkPatient(msg.sender) returns(string memory, uint8, bytes32[] memory, address[] memory) {\r\n        patient memory p = patients[msg.sender];\r\n        return (p.name, p.age, p.files, p.doctor_list);\r\n    }\r\n    \r\n    function signupPatient(string memory _name, uint8 _age) public {\r\n        patient memory p = patients[msg.sender];\r\n        require(keccak256(abi.encodePacked(_name)) != keccak256(\"\"));\r\n        require((_age > 0) && (_age < 100));\r\n        require(!(p.id > address(0x0)));\r\n\r\n        patients[msg.sender] = patient({name:_name,age:_age,id:msg.sender,files:new bytes32[](0),doctor_list:new address[](0)});\r\n    }\r\n\r\n}",
  "sourcePath": "C:\\Users\\DELL\\Ethereum-EHR\\contracts\\patient.sol",
  "compiler": {
    "name": "solc",
    "version": "0.5.0+commit.1d4f565a.Emscripten.clang"
  },
  "schemaVersion": "3.0.1",
  "updatedAt": "2022-04-10T16:48:29.351Z",
  "devdoc": {
    "methods": {}
  },
  "userdoc": {
    "methods": {}
  }
}